:1000000073C000009FC000009DC000009BC00000A6
:1000100099C0000097C0000095C0000093C0000088
:1000200091C000008FC000008DC000008BC0000098
:1000300089C0000087C0000085C0000083C00000A8
:1000400081C000007FC000007DC000007BC00000B8
:1000500079C0000077C0000075C000005FC30000D9
:1000600071C00000FCC1000030C200006BC0000085
:1000700069C0000067C0000065C0000063C00000E8
:1000800061C000005FC000005DC000005BC00000F8
:1000900059C0000057C0000055C0000053C0000008
:1000A00051C000004FC000004DC000004BC0000018
:1000B00049C0000047C0000045C0000043C0000028
:1000C00041C000003FC000003DC000005DC2000014
:1000D00091C2000037C0000035C0000033C00000EE
:1000E00031C0000097022C0311241FBECFEFD1E2D4
:1000F000DEBFCDBF00E00CBF12E0A0E0B2E0ECEC50
:10010000F8E000E00BBF02C007900D92A231B107EA
:10011000D9F723E0A2E1B2E001C01D92A535B207F4
:10012000E1F710E0C4E7D0E000E005C02197010945
:10013000802FFE01C1D3C237D10780E00807B1F795
:10014000B9D2C2C35DCF26E040E855E260E070E07E
:1001500082E192E021D126E040E855E260E070E0E3
:100160008FEA92E019C182E192E016D0892B39F032
:1001700082E192E02BD0682F8FEA92E0A6D08FEA3E
:1001800092E00AD0892B39F08FEA92E01FD0682FD5
:1001900082E192E09AC00895FC01918D228D892F11
:1001A00090E0805C9F4F821B91098F73992708957F
:1001B000FC01918D828D981731F0828DE80FF11D31
:1001C000858D90E008958FEF9FEF0895FC01918D4C
:1001D000828D981761F0828DDF01A80FB11D5D96A9
:1001E0008C91928D9F5F9F73928F90E008958FEF17
:1001F0009FEF0895FC01538D448D252F30E0842F0F
:1002000090E0821B930B541710F0CF96089501973E
:1002100008958EE892E0892B39F080E090E0892BF8
:1002200019F07CD1811124C080E090E0892B41F04D
:1002300080E090E0892B21F00E94000081111BC01A
:1002400083E293E0892B39F080E090E0892B19F06C
:10025000FAD1811113C080E090E0892BA1F080E0F9
:1002600090E0892B81F00E94000081110AC008955E
:100270000E940000D9CF0E940000E2CF0E9400003F
:10028000EACF0C9400000895FC01848DDF01A80FD3
:10029000B11DA35ABF4F2C91848D90E001968F73AE
:1002A0009927848FA689B7892C93A089B1898C91CD
:1002B00080648C93938D848D981306C00288F38993
:1002C000E02D80818F7D80830895EF92FF920F93C0
:1002D0001F93CF93DF93EC0181E0888F9B8D8C8DF2
:1002E000981305C0E889F989808185FD23C0F62E21
:1002F0000B8D10E00F5F1F4F0F731127E02E8C8DB9
:10030000E8120BC00FB607FCFACFE889F9898081A3
:1003100085FFF5CFCE01B8DFF2CF8B8DFE01E80F60
:10032000F11DE35AFF4FF0820B8FEA89FB89808130
:10033000806207C0EE89FF896083E889F98980813E
:100340008064808381E090E0DF91CF911F910F91D5
:10035000FF90EF900895CF93DF93EC01888D882371
:10036000C1F0EA89FB89808185FD05C0A889B9892A
:100370008C9186FD0EC00FB607FCF5CF808185FFFE
:10038000F2CFA889B9898C9185FFEDCFCE017CDFB2
:10039000E8CFDF91CF910895CF92DF92EF92FF9255
:1003A0001F93CF93DF93EC016A017B01122FE88941
:1003B000F98982E080834115514E61057105A9F0EC
:1003C00060E079E08DE390E0A701960153D2DA0175
:1003D000C9010197A109B109B695A7959795879588
:1003E0009C01211580E13807A0F0E889F989108285
:1003F00060E874E88EE190E0A70196013BD2DA0153
:10040000C9010197A109B109B695A7959795879557
:100410009C01EC85FD853083EE85FF852083188E59
:10042000EC89FD891083EA89FB8980818061808362
:10043000EA89FB89808188608083EA89FB898081E1
:1004400080688083EA89FB8980818F7D8083DF914A
:10045000CF911F91FF90EF90DF90CF9008951F9262
:100460000F920FB60F9211240BB60F922F938F930A
:100470009F93EF93FF93E0912202F09123028081FA
:10048000E0912802F091290282FD12C090818091B2
:100490002B028F5F8F7320912C02821751F0E09115
:1004A0002B02F0E0EE5EFD4F958F80932B0201C092
:1004B0008081FF91EF919F918F912F910F900BBEB3
:1004C0000F900FBE0F901F9018951F920F920FB6AE
:1004D0000F9211240BB60F922F933F934F935F937C
:1004E0006F937F938F939F93AF93BF93EF93FF93FC
:1004F00082E192E0C9DEFF91EF91BF91AF919F91B0
:100500008F917F916F915F914F913F912F910F90BC
:100510000BBE0F900FBE0F901F90189582E192E0D6
:100520003BDE21E0892B09F420E0822F0895E2E1EF
:10053000F2E01382128288EE93E0A0E0B0E08483C0
:100540009583A683B78384E092E09183808385ECD2
:1005500090E09587848784EC90E09787868780EC8D
:1005600090E0918B808B81EC90E0938B828B82EC7E
:1005700090E0958B848B86EC90E0978B868B118E28
:10058000128E138E148E08951F920F920FB60F9233
:1005900011240BB60F922F938F939F93EF93FF939A
:1005A000E091BF02F091C0028081E091C502F0911C
:1005B000C60282FD12C090818091C8028F5F8F7346
:1005C0002091C902821751F0E091C802F0E0E15594
:1005D000FD4F958F8093C80201C08081FF91EF91FC
:1005E0009F918F912F910F900BBE0F900FBE0F9088
:1005F0001F9018951F920F920FB60F9211240BB6F1
:100600000F922F933F934F935F936F937F938F93AB
:100610009F93AF93BF93EF93FF938FEA92E034DE03
:10062000FF91EF91BF91AF919F918F917F916F91CA
:100630005F914F913F912F910F900BBE0F900FBE86
:100640000F901F9018958FEA92E0A6DD21E0892B8C
:1006500009F420E0822F0895EFEAF2E0138212827B
:1006600088EE93E0A0E0B0E084839583A683B7830F
:1006700084E092E09183808385ED90E09587848784
:1006800084ED90E09787868780ED90E0918B808B5A
:1006900081ED90E0938B828B82ED90E0958B848B43
:1006A00086ED90E0978B868B118E128E138E148EB2
:1006B000089508957DD0FDDF46DDC9E0D1E053DD2A
:1006C0002097E9F3A6DDFBCFCF92DF92EF92FF9266
:1006D0000F931F93CF93DF936C017A018B01C0E0DE
:1006E000D0E0CE15DF0581F0D8016D918D01D601E6
:1006F000ED91FC910190F081E02DC6011995892BB7
:1007000011F02196EECF7E01C701DF91CF911F91AD
:100710000F91FF90EF90DF90CF9008951F920F926E
:100720000FB60F9211242F933F938F939F93AF9304
:10073000BF9380914D0390914E03A0914F03B091D0
:10074000500330914C0323E0230F2D3720F4019602
:10075000A11DB11D05C026E8230F0296A11DB11DE4
:1007600020934C0380934D0390934E03A0934F032B
:10077000B09350038091510390915203A091530381
:10078000B09154030196A11DB11D80935103909324
:100790005203A0935303B0935403BF91AF919F9121
:1007A0008F913F912F910F900FBE0F901F90189532
:1007B000789484B5826084BD84B5816084BD85B53C
:1007C000826085BD85B5816085BDEEE6F0E0808103
:1007D00081608083E1E8F0E0108280818260808324
:1007E000808181608083E0E8F0E0808181608083A7
:1007F000E1EBF0E0808184608083E0EBF0E08081D9
:1008000081608083E1E9F0E0808182608083808183
:1008100081608083E0E9F0E0808181608083E1EAAB
:10082000F0E0808182608083808181608083E0EA63
:10083000F0E0808181608083E1E2F1E0808182608C
:100840008083808181608083E0E2F1E0808181604B
:100850008083EAE7F0E08081846080838081826029
:100860008083808181608083808180688083109212
:10087000C1000895A1E21A2EAA1BBB1BFD010DC0E9
:10088000AA1FBB1FEE1FFF1FA217B307E407F50740
:1008900020F0A21BB30BE40BF50B661F771F881F1C
:1008A000991F1A9469F760957095809590959B01B2
:1008B000AC01BD01CF010895EE0FFF1F881F8BBF54
:0C08C0000790F691E02D1994F894FFCFFA
:1008CC000000000065016403FA00AB01CC00E600F7
:0208DC00D80042
:00000001FF
