:1000000013C1000041C100003FC100003DC100001C
:100010003BC1000039C1000037C1000035C10000FC
:1000200033C1000031C100002FC100002DC100000C
:100030002BC1000029C1000027C1000025C100001C
:1000400023C1000021C100001FC100001DC100002C
:100050001BC1000019C1000017C1000035C100001C
:1000600013C100000C94FF190C94351A0DC1000047
:100070000BC1000009C1000007C1000005C100005C
:1000800003C1000001C10000FFC00000FDC000006E
:10009000FBC00000F9C00000F7C00000F5C0000080
:1000A000F3C00000F1C00000EFC00000EDC0000090
:1000B000EBC00000E9C00000E7C00000E5C00000A0
:1000C000E3C00000E1C00000DFC000000C94941AFF
:1000D0000C94CA1AD9C00000D7C00000D5C00000D7
:1000E000D3C00000181C1B1C0A1C0E1C141C521C24
:1000F0001F1C231C291C2D1C311C371C3B1C3F1CA6
:10010000521C451C491C4D1C7C3C3E5E2B3D3F2F28
:100110005B5D3B2C2A225C0000000A0B02090C0DDF
:100120000E080703040100000000000000000000AA
:1001300000000000000000000000000000000000BF
:10014000000000001211100000000000000000007C
:10015000000000000000000000000000000001029C
:1001600010202008081020401020408002010201C9
:100170000804020101020408102040808040201081
:1001800008040201800402018040201008040201DA
:100190000804020101020408102040800102040842
:1001A000102040800505050507050808080802021B
:1001B00002020A0A08080404040401010101010101
:1001C00001010303030303030303040707070C0CE4
:1001D0000C0C0C0C0C0C02020202060606060606AB
:1001E00006060B0B0B0B0B0B0B0B00002200250064
:1001F00028002B002E003100340002010000050110
:1002000008010B0100002100240027002A002D0016
:100210003000330001010000040107010A01490117
:100220007E09D30C671AFC1A11241FBECFEFD1E24E
:10023000DEBFCDBF00E00CBF13E0A0E0B2E0E2E023
:10024000F2E400E00BBF02C007900D92A434B107A6
:10025000D9F727E0A4E4B3E001C01D92AE30B207A5
:10026000E1F711E0C4E1D1E000E006C02197010907
:10027000802FFE010E94511ECF30D10780E0080779
:10028000A9F717D00C94FF20BBCE84E493E032C4CE
:1002900008950F931F9300E012EC21E030E04AE054
:1002A00066E272E084E493E026D11F910F910895F5
:1002B0000895BFD0FDDFE9DFC9EDD8E1E9DF209780
:1002C000E9F30E94D918FACF1F920F920FB60F923E
:1002D00011242F933F938F939F93AF93BF9380915C
:1002E0006F0390917003A0917103B09172033091EC
:1002F0006E0323E0230F2D3720F40196A11DB11DBD
:1003000005C026E8230F0296A11DB11D20936E03A0
:1003100080936F0390937003A0937103B093720363
:100320008091730390917403A0917503B09176034B
:100330000196A11DB11D8093730390937403A09344
:100340007503B0937603BF91AF919F918F913F91C9
:100350002F910F900FBE0F901F9018952FB7F89404
:1003600060916F037091700380917103909172039B
:100370002FBF08953FB7F894809173039091740351
:10038000A0917503B091760326B5A89B05C02F3FB9
:1003900019F00196A11DB11D3FBFBA2FA92F982FAB
:1003A0008827820F911DA11DB11DBC01CD0142E026
:1003B000660F771F881F991F4A95D1F708958F926E
:1003C0009F92AF92BF92CF92DF92EF92FF926B011A
:1003D0007C01D0DF4B015C01C114D104E104F104C4
:1003E000F9F00E94291BC6DFDC01CB0188199909AD
:1003F000AA09BB09883E9340A105B10568F321E035
:10040000C21AD108E108F10888EE880E83E0981E30
:10041000A11CB11CC114D104E104F10421F7DCCF0B
:10042000FF90EF90DF90CF90BF90AF909F908F9014
:100430000895789484B5826084BD84B5816084BD5C
:1004400085B5826085BD85B5816085BDEEE6F0E04D
:10045000808181608083E1E8F0E0108280818260A9
:100460008083808181608083E0E8F0E0808181602A
:100470008083E1EBF0E0808184608083E0EBF0E05A
:10048000808181608083E1E9F0E080818260808307
:10049000808181608083E0E9F0E0808181608083F9
:1004A000E1EAF0E0808182608083808181608083E6
:1004B000E0EAF0E0808181608083E1E2F1E0808128
:1004C00082608083808181608083E0E2F1E08081CE
:1004D00081608083EAE7F0E08081846080838081AE
:1004E0008260808380818160808380818068808356
:1004F0001092C10008958F929F92BF92CF92DF9287
:10050000EF92FF920F931F93CF93DF93EC014B0178
:10051000B42E680179010696DDD39D828C82BDA23E
:10052000CEA2DFA2E8A6F9A6DF91CF911F910F918D
:10053000FF90EF90DF90CF90BF909F908F900895A5
:10054000FF920F931F93CF93DF93CDB7DEB76B97D7
:100550000FB6F894DEBF0FBECDBF8C016EE272E025
:1005600080ED95E00E948B1BF80165A187E793E081
:100570002CD5F82E811103C06FE372E057C0F8014B
:100580006481758187E793E0AFD6811106C06EE480
:1005900072E080ED95E00E948B1BF801448155814B
:1005A00021E067E773E0CE0101961CD6C8010696EC
:1005B0002B813C81F801318720874D815E816F81DD
:1005C0007885428753876487758749855A856B8507
:1005D0007C8546875787608B718B7296DE011D96EE
:1005E0009801215E3F4F4D914193E217F307D9F7F0
:1005F0002A8D3B8DF80130A3278F8FD3F80161A39B
:1006000072A383A394A36FE572E080ED95E00E944E
:100610008B1BF80141A152A163A174A12AE030E033
:1006200080ED95E00E94EE1B61E772E080ED95E0C1
:100630000E948B1B8F2D6B960FB6F894DEBF0FBEFA
:10064000CDBFDF91CF911F910F91FF9008958F92B1
:100650009F92AF92BF92CF92DF92EF92FF920F9351
:100660001F93CF93DF93EB0149015A0177DE6B01B2
:100670007C0174DEDC01CB018C199D09AE09BF0938
:1006800088169906AA06BB0680F010E006C08DE623
:1006900096E00E94B618811117C08DE696E00E9480
:1006A0009C18892BA1F7112321F38C819D81DF9167
:1006B000CF911F910F91FF90EF90DF90CF90BF905F
:1006C000AF909F908F900895682FCE010E94B91D22
:1006D000002319F365E0CE010E940D1E0196E9F298
:1006E00011E0DBCFCF93DF93EB018DE696E00E9424
:1006F0009C18892B29F08DE696E00E94B618F5CF5C
:10070000BE018DE696E00E94771B6FEF8DE696E0C6
:100710000E9435196FEF8DE696E00E9435196FEF54
:100720008DE696E0DF91CF910C9435198F929F92D0
:10073000AF92BF92EF92FF920F93CF93DF93CDB71B
:10074000DEB72C970FB6F894DEBF0FBECDBF7C018D
:100750004A015B0165E073E0CE0107960E94241D0B
:1007600026E0B501A4018DE696E00E949C1965E0A3
:1007700073E0C701B7DF6FE772E0C701B3DF00E0E6
:1007800024E630E040E050E0BE01695F7F4FC701E2
:100790005EDF67E872E0CE0101960E94241DBE0173
:1007A0006F5F7F4FCE0107960E942C1E7C01CE0109
:1007B00001960E94BD1CCE0107960E94BD1C81E0DF
:1007C000EF20E09409F480E02C960FB6F894DEBF99
:1007D0000FBECDBFDF91CF910F91FF90EF90BF90F3
:1007E000AF909F908F9008958F929F92AF92BF92FB
:1007F000CF92DF92EF92FF920F931F93CF93DF93ED
:10080000CDB7DEB76C970FB6F894DEBF0FBECDBF85
:100810007C018CE1EAE0F2E0DE01119601900D929C
:100820008A95E1F78E010F5F1F4F6E018DE1C80EB3
:10083000D11CF80181909190A190B1908F01B501E8
:10084000A401C70173DF882361F0F70180829182E0
:10085000A282B3826DE872E080ED95E00E948B1B6E
:1008600003C00C151D0529F7F701808191816C9655
:100870000FB6F894DEBF0FBECDBFDF91CF911F91B1
:100880000F91FF90EF90DF90CF90BF90AF909F902F
:100890008F9008958F929F92AF92BF92EF92FF92A6
:1008A0000F93CF93DF93CDB7DEB76E970FB6F89463
:1008B000DEBF0FBECDBF7C014A015B0165E073E086
:1008C000CE0149960E94241D65E073E0CE01439657
:1008D0000E94241DF70141A152A163A174A12AE045
:1008E000CE010D960E94621D2AE0B501A401CE0141
:1008F00007960E94621D6AE972E0CE0101960E948D
:10090000241DBE01635F7F4FCE0101960E94CC1D66
:1009100064EA72E00E94DD1DBE01695F7F4F0E94A4
:10092000CC1D66EA72E00E94DD1DBC01CE0143963B
:100930000E94381DCE0101960E94BD1CBE016D5E55
:100940007F4F80ED95E00E947B1B65E073E0C7015F
:10095000C9DE6B897C89C701C5DE62E370E080E097
:1009600090E02DDD26E0B501A4018DE696E00E9421
:100970009C1900E024EF31E040E050E0BE01675EEA
:100980007F4FC70164DE65E0CE0149960E940D1ECF
:100990007C01CE0107960E94BD1CCE010D960E94DF
:1009A000BD1CCE0143960E94BD1CCE0149960E94FB
:1009B000BD1C81E0EF20E09409F480E06E960FB654
:1009C000F894DEBF0FBECDBFDF91CF910F91FF90A6
:1009D000EF90BF90AF909F908F9008958F929F92CD
:1009E000AF92BF92CF92DF92EF92FF920F931F933D
:1009F000CF93DF9300D000D0CDB7DEB75C0165E0C8
:100A000073E0CE0101960E94241DF50181A192A1FF
:100A1000A3A1B4A1AC01BD012CE0769567955795D3
:100A200047952A95D1F77A01FFEFEF1AFF0A6C017B
:100A30002FE0D222450186E0880E911CE114F104DA
:100A400009F441C0E1E0EE16F10451F501E010E0D7
:100A5000C016D106D8F401E024EF31E040E050E0C8
:100A6000BE016F5F7F4FC501F2DD65E0CE010196EB
:100A70000E940D1E019609F165E073E0CE0101961A
:100A80000E944D1D21E0E21AF108D8CFC401BBD06D
:100A9000682F8DE696E00E9435190F5F1F4FD8CF63
:100AA00000E010E1C401AFD0682F8DE696E00E940F
:100AB000351901501109B1F7CECFCE0101960E9430
:100AC000BD1C80E004C0CE0101960E94BD1C26968C
:100AD0000FB6F894DEBF0FBECDBFDF91CF911F914F
:100AE0000F91FF90EF90DF90CF90BF90AF909F90CD
:100AF0008F900895CF93DF93EC0126E040E855E214
:100B000060E070E080ED95E00E949C19CE0118DD58
:100B1000811103C069EA72E01BC0CE0165DE892B3A
:100B200019F46BEB72E014C04EA15FA168A579A522
:100B3000CE01B0DE811103C06EEC72E009C0CE01BF
:100B40004DDF811103C064EE72E002C068EF72E015
:100B500080ED95E0DF91CF910C948B1B80E090E0CD
:100B600008950895CF93DF931F92CDB7DEB76983C1
:100B7000DC01ED91FC910280F381E02D41E050E039
:100B8000BE016F5F7F4F19950F90DF91CF91089550
:100B9000CF93DF93EC01898D9A8D009739F481E032
:100BA00090E09B838A8380E090E00BC0FC0113827D
:100BB00012820E942812E98DFA8D22813381232B23
:100BC00071F7DF91CF910895FC01818D928D00978F
:100BD00011F00C94DF0F0895CF93DF931F92CDB7E0
:100BE000DEB741E050E0BE016F5F7F4F0E94FF0D16
:100BF000019719F4898190E002C08FEF9FEF0F9069
:100C0000DF91CF910895FC01818D928D009709F0BD
:100C1000E3CF8FEF9FEF08950F931F93CF93DF9351
:100C2000FC01818D928D0097B1F0EF01D5DF8C0131
:100C30000F3F8FEF180791F0898D9A8DFC01428547
:100C400053856485758541505109610971090E9478
:100C5000490FC80105C080E090E002C08FEF9FEF10
:100C6000DF91CF911F910F910895EF92FF920F9313
:100C70001F93CF93DF93EC017B018A011B821A82C1
:100C800088EE93E0A0E0B0E08C839D83AE83BF83C9
:100C90008AE093E0998388838DE190E00E94721E40
:100CA0009A8F898F009779F02DE1F701DC0101908F
:100CB0000D922A95E1F74CE050E0B801CE010C9678
:100CC0000E949B20188EDF91CF911F910F91FF9072
:100CD000EF900895FC011382128288EE93E0A0E069
:100CE000B0E084839583A683B7838AE093E0918301
:100CF0008083128E118E14860895DC015996ED9131
:100D0000FC915A97309729F0628573858485958583
:100D100008956FEF7FEFCB010895DC015996ED91B7
:100D2000FC915A97309729F063897489858996894F
:100D3000089560E070E0CB010895CF92DF92EF92CA
:100D4000FF92CF93DF93FC01218D328D232BC9F0CD
:100D5000EC01E3DF6B017C01CE01CFDFA70196013F
:100D6000261B370B480B590BDA01C901811530E8F6
:100D70009307A105B10538F08FEF9FE7A0E0B0E041
:100D800002C080E090E0DF91CF91FF90EF90DF9084
:100D9000CF9008951F93CF93DF93CDB7DEB76D97B4
:100DA0000FB6F894DEBF0FBECDBFAB011C821B8215
:100DB0002EE133E03A8329831E8221E0BC01CE017B
:100DC00001960E94421111E0811102C010E004C09E
:100DD000CE0101960E942410812F6D960FB6F894D3
:100DE000DEBF0FBECDBFDF91CF911F9108950F934E
:100DF0001F93CF93DF93EC018B0141E00E945617C4
:100E0000811109C040E0B801CE01DF91CF911F915F
:100E10000F910C94561781E0DF91CF911F910F91A4
:100E20000895EF92FF920F931F93CF93DF93DA0110
:100E3000EB0128813981FC01E20FF31F40814F3221
:100E400011F42F5F3F4F8C01020F131F7D01E0E073
:100E5000F0E0E80159918E015F3259F0552349F0D5
:100E600031962F5F3F4FE70159937E01EC30F1053A
:100E700081F7EA0FFB1F1082FC01E20FF31F408194
:100E80004F3211F42F5F3F4FFB0131832083FC0170
:100E9000E20FF31F81E09081911101C080E0DF91AA
:100EA000CF911F910F91FF90EF9008954F925F9215
:100EB0006F927F928F929F92AF92BF92CF92DF926A
:100EC000EF92FF920F931F93CF93DF93CDB7DEB7CF
:100ED000C954D1090FB6F894DEBF0FBECDBF5C0177
:100EE0006B013A01490119A218A28EE193E09F8F8C
:100EF0008E8F1BA21C821B829A8389831E822A9654
:100F00001FAE1EAE2A978B017E018EE1E80EF11C0A
:100F100044244394AE01455C5F4FBE01685B7F4F44
:100F2000C5017FDF582E482F44259401BE01655C22
:100F30007F4FC801F3011995811108C00C151D05DB
:100F400019F0C8010E94241080E027C05520B9F094
:100F500021E0AE01455C5F4FB801C7010E9442111C
:100F6000582E0C151D0599F0C8010E94241055201B
:100F700059F3902F812F8701E92EF82ECBCF0C1536
:100F80001D0519F0C8010E94241081E006C08823C5
:100F9000D9F28E010F5F1F4FECCFC75BDF4F0FB64B
:100FA000F894DEBF0FBECDBFDF91CF911F910F919F
:100FB000FF90EF90DF90CF90BF90AF909F908F9079
:100FC0007F906F905F904F9008950F931F93CF93F2
:100FD000DF93EC01462F61E0F6D2882379F08E0191
:100FE000045F1F4FBE01C80102DF882339F0B8013A
:100FF000CE018A96B4D591E0811101C090E0892F8D
:10100000DF91CF911F910F910895FC01DB011296A2
:101010008D919C911397938382838EE193E09183CA
:10102000808314968C911497848315968C911597D0
:10103000858316964D915D916D917C9119974683AC
:101040005783608771871A964D915D916D917C9160
:101050001D9742875387648775871E964D915D91D2
:101060006D917C91519746875787608B718B529613
:101070008C915297828B53964D915D916D917C919D
:101080005697438B548B658B768B57964D915D911C
:101090006D917C915A97478B508F618F728F5B96C1
:1010A0008D919C915C97948F838F08954F925F925E
:1010B0006F927F928F929F92AF92BF92CF92DF9268
:1010C000EF92FF920F931F93CF93DF93CDB7DEB7CD
:1010D000C754D1090FB6F894DEBF0FBECDBF5C0177
:1010E0004A013901665D7F4F6E018EE1C80ED11C49
:1010F000C6018BDF1C821B828EE193E09A83898379
:101100001E8274018E010F5F1F4F5C2C4D2C6FE20D
:1011100070E0C7010E948920009709F441C0F701DF
:1011200020812F3271F4FFEFEF1AFF0A902F812FE9
:10113000052D142D2C01C201502E412E092F182FE0
:10114000E6CF8E198D3008F08CE0C82ED12CA60188
:10115000B701CE01CB960E949B20EBE3F0E0EC0FB1
:10116000FD1FEC0DFD1D1082C8016ED721E0AE0100
:10117000455C5F4F652D742DC8010E94421181119D
:1011800009C0F501138212828EE193E0918380837E
:1011900015820FC0EC0CFD1C852D942D55D7CBCF9F
:1011A000E818F908F301F182E082652D742DC5017C
:1011B0002CDFC501C95BDF4F0FB6F894DEBF0FBE51
:1011C000CDBFDF91CF911F910F91FF90EF90DF90F6
:1011D000CF90BF90AF909F908F907F906F905F90D7
:1011E0004F900895AF92BF92CF92DF92FF920F93EC
:1011F0001F93CF93DF93CDB7DEB7C955D1090FB693
:10120000F894DEBF0FBECDBF6C015B018A01F22EE8
:101210009E01285A3F4FCE01CB9648DF6A968EAD8D
:101220009FAD6A97080F191FF8018081811109C0CD
:10123000BE01655C7F4FCE010196E7DE48E153E0D9
:101240003CC019A218A28EE193E09F8F8E8F1BA243
:1012500021968FAD2197811103C0C6013BDD32C0BD
:101260008250823060F4B501665D7F4F2F2DA8015A
:10127000CE014E960E94421181110EC0EECF2F2D4D
:10128000A801BE01655C7F4FCE014E96FBD7882337
:1012900021F3CE01CB96D8D68F2D867039F049A98F
:1012A0005AA96BA97CA9CE014E96F3D5BE01625E08
:1012B0007F4FCE010196A9DEA801BE016F5F7F4F6F
:1012C000C601D3DCC601C75ADF4F0FB6F894DEBFA4
:1012D0000FBECDBFDF91CF911F910F91FF90DF9097
:1012E000CF90BF90AF900895FB01BC01665D7F4F2A
:1012F00020E030E04AEC56E0CF01D8CDE7E7F3E05C
:10130000158216821186138682E090E0A0E0B0E09C
:1013100084879587A687B78713A215A614A68EE1A2
:1013200093E093A782A717A608959FB7F8942091FA
:10133000CE058091CC05213019F48DBB9FBF089557
:101340008FBF08950F93FC0180E092E1AAE7B0E01F
:1013500030E0481759076A077B0740F4B695A79510
:10136000979587953F5F3630A1F737E091E0932757
:10137000222311F020E501C020E70C70892F86950B
:10138000082B022B0083917091830F910895209177
:10139000CE05222399F04FB7F8942091CE05213045
:1013A00059F42DB32093CC053DB32091CD05209564
:1013B00023232DBB4FBF02C04093CC058CBD9DBDE8
:1013C00008958EBD00000DB407FEFDCF8EB50895C3
:1013D0008FEFF7CF61E0FC0184810E948F1C809128
:1013E000C003882331F01092C0038091CE05811193
:1013F0009CCF0895CF93DF93EC018091C0038111BE
:1014000008C081E08093C0038091C1039091C20322
:10141000BEDF60E08C81DF91CF910C948F1CCF9365
:10142000DF93EC018E81882379F08F8198859C0170
:101430002F5F3F4F38872F838230924010F4C8DFF0
:10144000F4CFCE01C7DF1E82DF91CF9108950F93B5
:10145000CF93DF931F921F92CDB7DEB7673028F08E
:1014600026E1FC01258380E046C06230F9F058F4A3
:101470006623A9F0613079F500E021E040E059E011
:101480006DE370E02EC06430F9F0B8F0653019F506
:1014900000E021E040E950ED63E070E022C000E0B0
:1014A00021E040E458E76DE771E01BC000E021E077
:1014B00040E854E86EE170E014C000E021E040E450
:1014C00052E46FE070E00DC000E021E040E251EA3C
:1014D00067E070E006C000E021E048E458EE61E01B
:1014E00070E0CE0101962EDF89819A819093C2032C
:1014F0008093C10381E00F900F90DF91CF910F9106
:1015000008950F931F93CF93DF93EB010E94AE01D9
:101510008B015EDF8F3F49F00E94AE01601B710BB3
:101520006C177D07B0F380E001C081E0DF91CF91BF
:101530001F910F9108958F929F92AF92BF92FF9249
:101540000F931F93CF93DF93EC01F62E49015A01BD
:1015500066DFCE014FDF6CE271E0CE01D2DF8F2D6E
:1015600080642FDF08E110E0D501C401002E04C023
:10157000B695A795979587950A94D2F722DF0850DC
:101580001109083F8FEF180779F7FF2029F088E04D
:10159000F81204C087E803C085E901C08FEF11DFAE
:1015A00010E016DF8A8787FF04C01F3F11F01F5F1E
:1015B000F8CFDF91CF911F910F91FF90BF90AF9027
:1015C0009F908F9008957F928F929F92AF92BF923B
:1015D000CF92DF92EF92FF920F931F93CF93DF93FF
:1015E0001F921F92CDB7DEB77C01762EFC011386C9
:1015F00011861682158244830E94AE016B0161E060
:10160000F70184810E94531C61E0F70184810E94EC
:101610008F1C0E946A1800E021E040E950ED63E071
:1016200070E0CE0101968EDE89819A819093C2038B
:101630008093C103ACDE1AE08FEFC3DE1150E1F7F7
:101640008091CE05811171DEC701D4DE20E030E04B
:10165000A90160E0C7016FDF082FF70182878130A1
:1016600049F00E94AE016C197D09613D774070F32D
:1016700081E04BC02AEA31E040E050E068E0C70179
:101680005ADF82FF03C0F70103870DC004E0A0DE2C
:10169000F70182870150D9F78A3A11F082E036C00B
:1016A00082E0F7018387F7018385823021F0812C66
:1016B000912C540105C0812C912CA12C80E4B82ED2
:1016C00020E030E0A90167E3C70135DFA5019401FF
:1016D00069E2C70130DFF7018287882349F00E9461
:1016E000AE016C197D09613D774050F388E00DC073
:1016F000F70183858230C1F420E030E0A9016AE37C
:10170000C70119DF882331F086E0F7018583C7011F
:1017100061DE10C05DDE807C803C19F483E0F7015F
:10172000838756DE55DE54DEC70154DE672DC701C0
:101730008EDE182F812F0F900F90DF91CF911F9188
:101740000F91FF90EF90DF90CF90BF90AF909F9060
:101750008F907F9008950F931F93CF93DF93EC01A9
:101760000E94AE018B0134DE8A878F3F49F40E94CC
:10177000AE01601B710B6D327140A8F38FE003C0A6
:101780008E3F31F08DE08D83CE0124DE80E001C0FC
:1017900081E0DF91CF911F910F910895CF92DF9259
:1017A000EF92FF920F931F93CF93DF93EC016901A8
:1017B000C801820F931F8130924008F057C08E817C
:1017C000882371F088819981AA81BB81841795074C
:1017D000A607B70729F48F819885C816D90600F5A2
:1017E000488359836A837B838B85833039F089E012
:1017F000440F551F661F771F8A95D1F79A01AB01D9
:1018000061E1CE0198DE882319F083E08D832EC03C
:10181000CE01A1DF882351F118861F8281E08E83DB
:101820008F8198858C159D0538F4D2DD8F81988540
:10183000019698878F83F4CF6701E00EF11ECE14D6
:10184000DF0429F0C5DDF60181936F01F8CF8F81A8
:101850009885080F191F18870F838985882319F029
:101860000115124038F0CE01DADD04C0CE01B2DD40
:1018700080E001C081E0DF91CF911F910F91FF9037
:10188000EF90DF90CF900895EF92FF920F931F9308
:101890000115110511F082DF01C081E01F910F9148
:1018A000FF90EF900895EF92FF920F931F937901AD
:1018B00000E012E020E030E071DF1F910F91FF9017
:1018C000EF900895EF92FF920F931F93CF93DF93C2
:1018D0008C01862F7A0175DDE7018EEFF81A899168
:1018E00070DDCE15DF05D9F78FEF6BDD8FEF69DD8A
:1018F0006FDDF80182878F71853031F081E185835A
:10190000C80168DD80E001C081E0DF91CF911F91C7
:101910000F91FF90EF9008950F931F93CF93DF9354
:10192000EC018901411551056105710511F482E150
:101930002DC08B85833039F089E0440F551F661F19
:10194000771F8A95D1F79A01AB0168E1CE01F3DDEB
:10195000882311F084E01AC0A8016EEFCE01B2DF37
:101960008823A9F068E572E0CE01CBDD811102C0C9
:1019700085E10CC020E030E0A9016DE0CE01DBDDA7
:10198000811103C025DD882331F084E18D83CE01F0
:1019900021DD80E003C0CE011DDD81E0DF91CF912C
:1019A0001F910F910895E1ECF3E080E580831182AF
:1019B0000895CF93DF93EC019C012A5F3F4F41E0F4
:1019C00050E060E070E08B8D9C8D0E94F1158823C3
:1019D000A1F08F89988DA98DBA8D892B8A2B8B2B9D
:1019E00059F48E819F81A885B9858F8B988FA98F97
:1019F000BA8F8C8180688C8381E0DF91CF910895CC
:101A0000CF92DF92EF92FF921F93CF93DF93EC017F
:101A1000D0DF811102C080E049C0EB8DFC8DCE800B
:101A2000DF80E884F98482E0C81AD108E108F1086F
:101A3000058404C0CC0CDD1CEE1CFF1C0A94D2F7FC
:101A400086859785A089B189C80ED91EEA1EFB1E1E
:101A5000148181E0C81AD108E108F108112359F076
:101A6000C701B601610F711D811D911D0DD788231E
:101A700091F21150F3CFEB8DFC8D80E092E0A0E06D
:101A8000B0E0058404C0880F991FAA1FBB1F0A94E9
:101A9000D2F74B895C896D897E89840F951FA61FBB
:101AA000B71F8B8B9C8BAD8BBE8B81E0DF91CF9171
:101AB0001F91FF90EF90DF90CF900895CF93DF9329
:101AC000EC01462F6E857F8588899989A4D6882365
:101AD00041F08A8920E2829FC001112484539C4FE7
:101AE00002C080E090E0DF91CF910895FB019B015F
:101AF000255F3F4F40E24193E217F307E1F7DC0136
:101B000090E027E08D91882319F18E3229F42A3054
:101B100021F198E02AE0F6CFE8E0F1E034913323B8
:101B200021F031968313FACF18C02917B0F03FED9A
:101B3000380F3E3590F431E0390FFB01E90FF11D0C
:101B40009FE9980F9A3108F480528083932FDACF5F
:101B500081E0FB019081903209F480E008950F93B9
:101B60001F93CF93DF93FC012581222311F080E0A6
:101B700041C08B01EC01FB0187898031B1F482E027
:101B80008D831F8A188E198E1A8E808D918DA0E0FC
:101B9000B0E025E0880F991FAA1FBB1F2A95D1F737
:101BA0008B8B9C8BAD8BBE8B14C0803201F783E096
:101BB0008D83FB01428D538D648D758D4F8B588FB6
:101BC000698F7A8F9E012D5E3F4FC80102D788230F
:101BD00071F21C8F0B8F81E08C831E821F8218860E
:101BE00019861A861B861C861D861E861F86188AE5
:101BF000198A1A8ADF91CF911F910F9108952F9220
:101C00003F924F925F926F927F928F929F92AF928C
:101C1000BF92CF92DF92EF92FF920F931F93CF93D9
:101C2000DF93EC015B014A018D81811103C08FEFCD
:101C30009FEFD4C08C8180FFFACF4B885C886D8881
:101C40007E884A855B856C857D85C401A0E0B0E017
:101C500093018201041B150B260B370B081719077C
:101C60002A073B0718F44201841A950A24011E0131
:101C700026E0220E311C4114510409F47DC04A852E
:101C80005B856C857D856A0181E0D822ED818B8D35
:101C90009C8D8A019B01F9E036952795179507954C
:101CA000FA95D1F7E23061F4FC01828D938DA48D19
:101CB000B58DBC01CD01600F711F821F931F3EC007
:101CC000FC0174807A947022C114D104C1F47110A3
:101CD00016C0452B462B472B49F48F89988DA98D2B
:101CE000BA8D8E839F83A887B98709C04E815F8193
:101CF000688579859101EBD5882309F498CFEB8D20
:101D0000FC8D8E819F81A885B9850297A109B109B3
:101D1000058404C0880F991FAA1FBB1F0A94D2F71D
:101D20004685578560897189840F951FA61FB71F47
:101D3000BC01CD01670D711D811D911D20E032E0B8
:101D40002C193D0932012415350508F439012C817F
:101D500026FD04C06114F2E07F0671F500910602D1
:101D60001091070220910802309109026017710753
:101D70008207930719F420C0C40130C075018301A4
:101D80009601AB01BC018091CA039091CB037CDD2D
:101D9000882309F44CCFA60CB71C8A859B85AC859B
:101DA000BD85860D971DA11DB11D8A879B87AC87B8
:101DB000BD87461857085FCF40E02DD5882309F42A
:101DC00036CFF601E453FC4FD501CF01860D971DA8
:101DD0008E179F0701F321912D93FACFDF91CF91B9
:101DE0001F910F91FF90EF90DF90CF90BF90AF9039
:101DF0009F908F907F906F905F904F903F902F902B
:101E00000895FF920F931F93CF93DF931F92CDB747
:101E1000DEB7FC012581223018F480E090E032C06A
:101E20008C01FC01428553856485758585E0769536
:101E30006795579547958A95D1F7F42FFF70FF2E38
:101E400041E050E0BE016F5F7F4FC801D8DE0197CF
:101E500019F4898190E002C08FEF9FEF0196E9F2BB
:101E6000F80182859385A485B5854F96A11DB11D86
:101E700082879387A487B587F0E2FF9EC001112473
:101E800084539C4F0F90DF91CF911F910F91FF9042
:101E900008958F929F92AF92BF92CF92DF92EF926E
:101EA000FF920F931F93CF93DF93EC018D818111EC
:101EB00002C080E077C00B891C892D893E890417F8
:101EC000150726073707A8F36A017B01823029F43A
:101ED000CA86DB86EC86FD860DC0C114D104E10400
:101EE000F10451F41E821F82188619861A861B86F9
:101EF0001C861D8681E056C08A849B84AC84BD8488
:101F0000EB8DFC8D258530E0275F3F4FB501A401A7
:101F10004150510961097109022E04C076956795F7
:101F2000579547950A94D2F7D701C6010197A109A1
:101F3000B10904C0B695A795979587952A95D2F7CC
:101F400084179507A607B70720F089288A288B28C9
:101F500071F44F89588D698D7A8D4E835F836887C0
:101F600079874C015D018E010A5F1F4F15C0841BEC
:101F7000950BA60BB70BF5CF4E815F8168857985F0
:101F800098018B8D9C8DA3D491E0891A9108A108AA
:101F9000B108882309F48DCF81149104A104B10400
:101FA00059F796CFDF91CF911F910F91FF90EF904E
:101FB000DF90CF90BF90AF909F908F9008950F9338
:101FC0001F93CF93DF93EC018D818823B9F18C812E
:101FD00087FF2FC061E0CE0171DD8C01892B71F18B
:101FE0008D81823048F48B899C89AD89BE89F80146
:101FF000848F958FA68FB78F8F89988DA98DBA8D75
:10200000F801938F828FB58BA48BE091C303F0917D
:10201000C403309759F0B8016A5E7F4FC8014896F3
:102020001995F801808D918D938B828B8C818F77A0
:102030008C83DF91CF911F910F91B4C380E0DF912A
:10204000CF911F910F910895CF93DF93EC01B7DFEC
:10205000882311F01D8281E0DF91CF9108954F9286
:102060005F926F927F928F929F92AF92BF92EF9208
:10207000FF920F931F93CF93DF9300D01F92CDB7A2
:10208000DEB7FC0185818130E1F4848181FF19C0D4
:1020900083899489A589B68984179507A607B70708
:1020A00080F0892B8A2B8B2B09F472C04A015B01CB
:1020B0007F014284538464847584CF01EADE8111F8
:1020C00002C080E066C0F701838D948D8114910475
:1020D000A104B10469F44789508D618D728D92D647
:1020E000882379F3F701178A108E118E128E37C06C
:1020F000F70146815781608571859E012F5F3F4FB3
:10210000E6D38823F1F249815A816B817C81F70102
:10211000838D948DFC012789203129F008EF1FEF72
:102120002FEF3FE004C008EF1FEF20E030E0401742
:1021300051076207730798F465D6882309F4C1CF65
:10214000F70146815781608571850FEF1FEF2FEFF3
:102150003FE0838D948DA5D4882309F4B2CFF70195
:10216000838A948AA58AB68A848180688483C70119
:1021700026DF882309F4A5CFB501A401481459042A
:102180006A047B0410F4B301A201C70182DE01C01E
:1021900081E00F900F900F900F90DF91CF911F91E2
:1021A0000F91FF90EF90BF90AF909F908F907F9096
:1021B0006F905F904F9008951F93CF93DF93EC0142
:1021C00080E2689FF0011124E453FC4F93859171E4
:1021D00029F0842F827411F080E050C0142F6A8B94
:1021E0008091060290910702A0910802B091090225
:1021F0008E879F87A88BB98B4489558960E070E0F2
:10220000BA0155274427828D938DA0E0B0E0482B7A
:10221000592B6A2B7B2B4F8B588F698F7A8F838535
:10222000887151F4848D958DA68DB78D8B8B9C8B89
:10223000AD8BBE8B81E00BC0803171F69E012D5EAF
:102240003F4F8B8D9C8DC5D3882331F284E08D83E5
:10225000812F8F708C831E821F82188619861A86A2
:102260001B861C861D8616FF08C040E050E0BA01A0
:10227000CE01DF91CF911F91F2CE81E0DF91CF911E
:102280001F910895BF92CF92DF92EF92FF920F932A
:102290001F93CF93DF93CDB7DEB72B970FB6F8948C
:1022A000DEBF0FBECDBFFC0135813111B9C0C22EDA
:1022B0008B017C01BE016F5F7F4FCA0117DC882351
:1022C00009F4AEC0F801838D948DF701948F838F4C
:1022D000F8011682178210861186128613861486DC
:1022E0001586D12CF80182859385A485B58543890F
:1022F00054896589768984179507A607B70708F07A
:102300003DC025E0B695A795979587952A95D1F775
:10231000F82FFF70BF2EC80174DD009709F480C04C
:10232000FC0120812223A1F0253E09F47BC04BE073
:1023300050E0BC01CE0101960E947320892B91F6DA
:102340008C2D8073803309F46BC04C2D6B2D65C0D0
:10235000D11012C0F701B28A4091060250910702D3
:10236000609108027091090246875787608B718BD4
:10237000FC018081811159C0DD24D3948C2D8271A0
:10238000823109F04DC0DD2039F061E0C70196DBF4
:102390008C01892B71F444C0F8018581823009F4E5
:1023A0003FC0C8012DDB8823D9F1F701128A0CEC5C
:1023B00013E080E2F80111928A95E9F78BE0FE01C3
:1023C0003196D80101900D928A95E1F7E091C3030F
:1023D000F091C403309739F0B801625F7F4FC801B4
:1023E0004096199509C081E298E2F801918B808BA3
:1023F00080E098E097878687F80180899189938BA0
:10240000828B918F808F86859785978B868BCAD19B
:10241000882331F04C2DF7016289C701CDDE08C059
:1024200080E006C0DD2009F495CFDD24D3945ACF97
:102430002B960FB6F894DEBF0FBECDBFDF91CF91C4
:102440001F910F91FF90EF90DF90CF90BF90089574
:102450002F923F924F925F926F927F928F929F92B4
:10246000AF92BF92CF92DF92EF92FF920F931F93A2
:10247000CF93DF9300D01F92CDB7DEB78C016B01F5
:102480001A01DC0115968C9115978130C1F41496D0
:102490008C9181FF14C082FF1CC0F80143895489CC
:1024A0006589768982859385A485B5858417950786
:1024B000A607B70771F0C801ECDC81110AC081E002
:1024C00090E0D80113969C938E93129780E090E051
:1024D00042C1410182C05B968D919C915C97FC0149
:1024E00074802FEF270D2A013B0139E07694679421
:1024F000579447943A95D1F7722E74207A01F1E0FF
:10250000FF22772009F475C080E092E08E199F09C0
:1025100054018815990508F45C01D8015B962D914A
:102520003C915C9716968D919D910D90BC91A02D3C
:102530000297A109B109F901058404C0880F991F08
:10254000AA1FBB1F0A94D2F74685578560897189F7
:10255000840F951FA61FB71F9C01AD01270D311DCC
:10256000411D511D29013A01A11432E0B30609F0C1
:1025700085C08091060290910702A0910802B09157
:102580000902481659066A067B0659F48FEF9FEF39
:10259000DC018093060290930702A0930802B09397
:1025A00009029601B301A2018091CA039091CB0365
:1025B000B3D9882309F483CF9EEFD91A8A189B08D0
:1025C000F80182859385A485B5858A0D9B1DA11D83
:1025D000B11D82879387A487B587D8011A964D913C
:1025E0005D916D917C911D978114910409F073CFD9
:1025F00083C0E114F10409F087CF16964D915D91E7
:102600006D917C911997411551056105710559F43A
:1026100057968D919D910D90BC91A02D0097A1058D
:10262000B10531F520C09E012F5F3F4F50D1882367
:1026300009F44DCF89819A81AB81BC81F801238D4A
:10264000348DF9012789203129F048EF5FEF6FEFD2
:102650007FE004C048EF5FEF60E070E0841795070B
:10266000A607B70728F0C801A4D981114DCF27CFFD
:10267000F80186839783A087B18746CFE114F104E0
:1026800021F5D8011A964D915D916D917C911D9720
:1026900053968D919D910D90BC91A02D481759078F
:1026A0006A077B0790F07ED0882309F408CF409218
:1026B000060250920702609208027092090280910D
:1026C000C90381608093C90307C041E0C301B2011F
:1026D000A2D0882309F4F3CED601F701E453FC4FCE
:1026E0009F012A0D3B1D2E173F0719F08D918193F5
:1026F000FACFCA0CDB1C62CFD8015396CD90DD9087
:10270000ED90FC90569714968C91C416D506E6066B
:10271000F70640F4F801438B548B658B768B806809
:1027200084830DC02091C3033091C403232B39F05F
:102730002114310421F08068D80114968C93F8019B
:10274000848183FD02C0C10106C0C80138DC882332
:1027500009F4B5CEF8CF0F900F900F900F90DF9146
:10276000CF911F910F91FF90EF90DF90CF90BF908E
:10277000AF909F908F907F906F905F904F903F9021
:102780002F900895CF93DF931F92CDB7DEB7698363
:1027900041E050E0BE016F5F7F4F5ADE0F90DF9146
:1027A000CF9108958091C903882399F14091060241
:1027B0005091070260910802709109022CEC33E0FD
:1027C0008091CA039091CB03A7D8811102C080E009
:1027D00008954091C5035091C6036091C70370915D
:1027E000C803411551056105710589F02CEC33E0F2
:1027F0008091CA039091CB038FD8882341F3109224
:10280000C5031092C6031092C7031092C80310921A
:10281000C90381E00895CF92DF92EF92FF92CF93A8
:102820006B017C01C42F8091060290910702A09158
:102830000802B09109028C159D05AE05BF05C1F0D7
:10284000B1DF811102C080E019C02CEC33E0B70188
:10285000A6018091CA039091CB0325D8882399F3D0
:10286000C0920602D0920702E0920802F09209029A
:102870008091C903C82BC093C90381E0CF91FF9019
:10288000EF90DF90CF900895CF92DF92EF92FF927A
:102890006B017C0187DF8823A9F0ECECF3E0119257
:1028A00085E0EC3CF807D9F7C0920602D092070207
:1028B000E0920802F09209028091C903816080933E
:1028C000C90381E0FF90EF90DF90CF9008958F9241
:1028D0009F92AF92BF92CF92DF92EF92FF920F93AF
:1028E0001F93CF93DF93FC0181859285A385B485E7
:1028F0000196A11DB11D84179507A607B70710F40F
:1029000080E05AC083889488A588B68887898031FA
:1029100029F4BB27A72F962F852F09C0DB01CA01F9
:10292000C7E0B695A79597958795CA95D1F7E90120
:102930006A017B018F01BC01CD01680D791D8A1DE3
:102940009B1D8090060290900702A0900802B09014
:102950000902681579058A059B0591F4F8018789B4
:10296000803199F4DD24EE24FF24C601880F991FDD
:10297000FC01E453FC4F80819181A0E0B0E017C0DE
:1029800040E049DF8111EACFBBCFE894C7F8DD24EE
:10299000EE24FF24C601880F991F880F991FFC01A0
:1029A000E453FC4F80819181A281B381BF70888301
:1029B0009983AA83BB8381E0DF91CF911F910F910F
:1029C000FF90EF90DF90CF90BF90AF909F908F904F
:1029D00008954F925F926F927F92AF92BF92CF9283
:1029E000DF92EF92FF920F931F93CF93DF9300D06C
:1029F0001F92CDB7DEB78C0149835A836B837C83EA
:102A00005901C12CD12C7601412C82E0582E612C29
:102A1000712C49815A816B817C819E012F5F3F4FD0
:102A2000C80155DF882351F1D301C201F8010584A3
:102A300004C0880F991FAA1FBB1F0A94D2F7C80EA3
:102A4000D91EEA1EFB1E49815A816B817C818789D0
:102A5000803129F088EF9FEFAFEFBFE004C088EF2F
:102A60009FEFA0E0B0E0481759076A077B0788F29C
:102A7000F501C082D182E282F38281E00F900F9053
:102A80000F900F90DF91CF911F910F91FF90EF90DA
:102A9000DF90CF90BF90AF907F906F905F904F90FE
:102AA00008954F925F926F927F928F929F92AF9212
:102AB000BF92CF92DF92EF92FF920F931F93CF932B
:102AC000DF93EC01423051056105710510F480E09F
:102AD00077C089859A85AB85BC850196A11DB11DFE
:102AE00084179507A607B70790F3CB88DC88ED8895
:102AF000FE888F89803129F4BB27A72F962F852F39
:102B000009C0DB01CA01E7E0B695A79597958795BF
:102B1000EA95D1F7480159012A013B01C80ED91E97
:102B2000EA1EFB1E8091060290910702A091080206
:102B3000B0910902C816D906EA06FB0681F48F890E
:102B40008031A1F4B301A201552766277727440FEE
:102B5000551FFA01E453FC4F9182808218C040E077
:102B6000C701B60158DE8111EACFB1CFB301A2018E
:102B70004F77552766277727440F551F440F551F5A
:102B8000FA01E453FC4F80829182A282B382809149
:102B9000C90381608093C9038A89823080F08D8166
:102BA0009E81AF81B885C80ED91EEA1EFB1EC09259
:102BB000C503D092C603E092C703F092C80381E038
:102BC000DF91CF911F910F91FF90EF90DF90CF9009
:102BD000BF90AF909F908F907F906F905F904F903D
:102BE00008952F923F924F925F926F927F929F92A1
:102BF000AF92BF92CF92DF92EF92FF920F931F930B
:102C0000CF93DF93CDB7DEB760970FB6F894DEBFF2
:102C10000FBECDBF5C0149875A876B877C8719013E
:102C2000D901CD90DD90ED90FC90C114D104E10468
:102C3000F10431F0BFEFCB1ADB0AEB0AFB0A10C03C
:102C4000FC01C080D180E280F380992493940985AF
:102C50001A852B853C85013011052105310509F0C8
:102C6000912CF50181859285A385B4858C019D0108
:102C70000F5F1F4F2F4F3F4F0D871E872F87388BBA
:102C8000260137011D821E821F821886F50181856B
:102C90009285A385B4850D811E812F813885081703
:102CA00019072A073B0708F054C02D853E854F853C
:102CB0005889241535054605570550F482E0482EFD
:102CC000512C612C712C92E0C92ED12CE12CF12CCD
:102CD0009E012F5F3F4FB301A201C501F8DD88239C
:102CE000C1F149815A816B817C81D301C201019676
:102CF000A11DB11D452B462B472B19F06C017D0101
:102D00000FC0AC01BD014C195D096E097F09098531
:102D10001A852B853C85041715072607370779F098
:102D20002D813E814F8158852F5F3F4F4F4F5F4F21
:102D30002D833E834F8358872C013D01A7CF0FEF92
:102D40001FEF2FEF3FE0B301A201C501AADE811101
:102D500017C080E03FC0D301C2010197A109B109AA
:102D60008D839E83AF83B88793018201AC01BD013F
:102D7000C50197DE882369F34D805E806F8078847B
:102D8000C414D504E604F70430F3D1014D915D91EC
:102D90006D917C91411551056105710599F4F10121
:102DA000C082D182E282F382992099F0FFEFCF1A9C
:102DB000DF0AEF0AFF0AD501CD92DD92ED92FC9277
:102DC000139707C097018601C5016BDE8111E7CF1C
:102DD000C0CF81E060960FB6F894DEBF0FBECDBFC6
:102DE000DF91CF911F910F91FF90EF90DF90CF90E7
:102DF000BF90AF909F907F906F905F904F903F906B
:102E00002F900895AF92BF92CF92DF92EF92FF92F0
:102E10000F931F93CF93DF9300D01F92CDB7DEB7F0
:102E20005C016A017B0182E090E0A0E0B0E0F50186
:102E300080839183A283B3839E012F5F3F4FB701AD
:102E4000A601C50144DD882309F100E010E09801E6
:102E5000B701A601C50125DE8823C1F0C980DA804B
:102E6000EB80FC80F5018789803129F088EF9FEFA6
:102E7000AFEFBFE004C088EF9FEFA0E0B0E0C8165E
:102E8000D906EA06FB06C0F281E001C080E00F909F
:102E90000F900F900F90DF91CF911F910F91FF90A6
:102EA000EF90DF90CF90BF90AF9008958F929F9258
:102EB000AF92BF92CF92DF92EF92FF920F931F9348
:102EC000CF93DF93EC01142F7093CB036093CA036D
:102ED000442361F1453010F080E0EFC040E060E055
:102EE00070E0CB0198DC8823B9F320E1129FA001A8
:102EF000112444545C4FFA01E254FE4F80818F77D5
:102F000059F73C9680819181A281B38184369105E5
:102F1000A105B10508F33497C080D180E280F38029
:102F2000C114D104E104F10421F4D6CFC12CD12C79
:102F3000760140E0C701B6016EDC882369F280911A
:102F4000D7039091D8038115924031F69091DC031C
:102F5000992309F4C1CF2091DA033091DB03232BAD
:102F600009F4BACF8091D903882309F4B5CF9A8B9D
:102F70008C831D8690E041E050E02D85E22FBA0160
:102F8000022E02C0660F771F0A94E2F78617970792
:102F900031F031E0320F3D87283078F39DCF20911A
:102FA000E2033091E3032115310519F040E050E0D0
:102FB00008C02091F0033091F1034091F203509149
:102FC000F3032D833E834F8358878091DA039091DA
:102FD000DB0346015701880E991EA11CB11C8B8A88
:102FE0009C8AAD8ABE8A0091DD031091DE03198FA1
:102FF000088FA091DC03B0E05CD6860E971EA81E59
:10300000B91E8A8E9B8EAC8EBD8E85E0000F111F7F
:103010008A95E1F701501E4F012F11270695800E6A
:10302000911EA11CB11C8E869F86A88AB98A209108
:10303000DF033091E0032115310521F0A90160E0A3
:1030400070E008C04091EC035091ED036091EE03F5
:103050007091EF03D701C60188199909AA09BB0924
:10306000840F951FA61FB71F04C0B695A795979507
:103070008795EA95D2F789879A87AB87BC87853F82
:103080002FE09207A105B10510F48CE014C0853F34
:103090009F4FA105B10510F480E10DC08091F803A8
:1030A0009091F903A091FA03B091FB038A8F9B8F53
:1030B000AC8FBD8F80E28F8B81E0DF91CF911F912C
:1030C0000F91FF90EF90DF90CF90BF90AF909F90C7
:1030D0008F900895CF93CFB7F8948091CF05811149
:1030E00023C0E9EDF1E08491E3E9F1E09491E82F68
:1030F000F0E0EE0FFF1FEC5FFD4FA591B491EC9156
:10310000E92319F461E085E30AD461E085E3CBD3D8
:103110008CB580618CBD8CB580648CBD61E084E32E
:10312000C2D361E083E3BFD38091CF058F5F8093EB
:10313000CF05CFBFCF910895FC01918D228D892FAE
:1031400090E0805C9F4F821B91098F7399270895AF
:10315000FC01918D828D981731F0828DE80FF11D61
:10316000858D90E008958FEF9FEF0895FC01918D7C
:10317000828D981761F0828DDF01A80FB11D5D96D9
:103180008C91928D9F5F9F73928F90E008958FEF47
:103190009FEF0895FC01538D448D252F30E0842F3F
:1031A00090E0821B930B541710F0CF96089501976F
:1031B00008958EE59AE1892B39F080E090E0892B23
:1031C00019F07CD1811124C080E090E0892B41F07E
:1031D00080E090E0892B21F00E94000081111BC04B
:1031E00083EF9AE1892B39F080E090E0892B19F088
:1031F000FAD1811113C080E090E0892BA1F080E02A
:1032000090E0892B81F00E94000081110AC008958E
:103210000E940000D9CF0E940000E2CF0E9400006F
:10322000EACF0C9400000895FC01848DDF01A80F03
:10323000B11DA35ABF4F2C91848D90E001968F73DE
:103240009927848FA689B7892C93A089B1898C91FD
:1032500080648C93938D848D981306C00288F389C3
:10326000E02D80818F7D80830895EF92FF920F93F0
:103270001F93CF93DF93EC0181E0888F9B8D8C8D22
:10328000981305C0E889F989808185FD23C0F62E51
:103290000B8D10E00F5F1F4F0F731127E02E8C8DE9
:1032A000E8120BC00FB607FCFACFE889F9898081D4
:1032B00085FFF5CFCE01B8DFF2CF8B8DFE01E80F91
:1032C000F11DE35AFF4FF0820B8FEA89FB89808161
:1032D000806207C0EE89FF896083E889F98980816F
:1032E0008064808381E090E0DF91CF911F910F9106
:1032F000FF90EF900895CF93DF93EC01888D8823A2
:10330000C1F0EA89FB89808185FD05C0A889B9895A
:103310008C9186FD0EC00FB607FCF5CF808185FF2E
:10332000F2CFA889B9898C9185FFEDCFCE017CDFE2
:10333000E8CFDF91CF910895CF92DF92EF92FF9285
:103340001F93CF93DF93EC016A017B01122FE88971
:10335000F98982E080834115514E61057105A9F01C
:1033600060E079E08DE390E0A701960178D4DA017E
:10337000C9010197A109B109B695A79597958795B8
:103380009C01211580E13807A0F0E889F9891082B5
:1033900060E874E88EE190E0A701960160D4DA015C
:1033A000C9010197A109B109B695A7959795879588
:1033B0009C01EC85FD853083EE85FF852083188E8A
:1033C000EC89FD891083EA89FB8980818061808393
:1033D000EA89FB89808188608083EA89FB89808112
:1033E00080688083EA89FB8980818F7D8083DF917B
:1033F000CF911F91FF90EF90DF90CF9008951F9293
:103400000F920FB60F9211240BB60F922F938F933A
:103410009F93EF93FF93E091E005F091E1058081A8
:10342000E091E605F091E70582FD12C09081809160
:10343000E9058F5F8F732091EA05821751F0E091C3
:10344000E905F0E0E053FA4F958F8093E90501C05C
:103450008081FF91EF919F918F912F910F900BBEE3
:103460000F900FBE0F901F9018951F920F920FB6DE
:103470000F9211240BB60F922F933F934F935F93AC
:103480006F937F938F939F93AF93BF93EF93FF932C
:1034900080ED95E0C9DEFF91EF91BF91AF919F91D3
:1034A0008F917F916F915F914F913F912F910F90ED
:1034B0000BBE0F900FBE0F901F90189580ED95E0FA
:1034C0003BDE21E0892B09F420E0822F0895E0ED16
:1034D000F5E01382128288EE93E0A0E0B0E08483EE
:1034E0009583A683B7838AE293E09183808385ECFA
:1034F00090E09587848784EC90E09787868780ECBE
:1035000090E0918B808B81EC90E0938B828B82ECAE
:1035100090E0958B848B86EC90E0978B868B118E58
:10352000128E138E148E08951F920F920FB60F9263
:1035300011240BB60F922F938F939F93EF93FF93CA
:10354000E0917D06F0917E068081E0918306F09106
:10355000840682FD12C09081809186068F5F8F73F2
:1035600020918706821751F0E0918606F0E0E3593A
:10357000F94F958F8093860601C08081FF91EF916E
:103580009F918F912F910F900BBE0F900FBE0F90B8
:103590001F9018951F920F920FB60F9211240BB621
:1035A0000F922F933F934F935F936F937F938F93DC
:1035B0009F93AF93BF93EF93FF938DE696E034DE36
:1035C000FF91EF91BF91AF919F918F917F916F91FB
:1035D0005F914F913F912F910F900BBE0F900FBEB7
:1035E0000F901F9018958DE696E0A6DD21E0892BBF
:1035F00009F420E0822F0895EDE6F6E013821282AE
:1036000088EE93E0A0E0B0E084839583A683B7833F
:103610008AE293E09183808385ED90E095878487AB
:1036200084ED90E09787868780ED90E0918B808B8A
:1036300081ED90E0938B828B82ED90E0958B848B73
:1036400086ED90E0978B868B118E128E138E148EE2
:1036500008950895CF92DF92EF92FF920F931F93F8
:10366000CF93DF936C017A018B01C0E0D0E0CE15DF
:10367000DF0581F0D8016D918D01D601ED91FC91AE
:103680000190F081E02DC6011995892B11F021964A
:10369000EECF7E01C701DF91CF911F910F91FF9077
:1036A000EF90DF90CF9008956115710579F0FB01DF
:1036B00001900020E9F73197AF01461B570BDC0161
:1036C000ED91FC910280F381E02D199480E090E06F
:1036D0000895DB0114964D915C9115976D917C9145
:1036E000DC01ED91FC910280F381E02D1994DCCF97
:1036F00063E073E0D9CF0F931F93CF93DF93EC0177
:10370000E8DF8C01CE01F4DF800F911FDF91CF91B4
:103710001F910F9108950F931F93CF93DF93EC01A7
:10372000C3DF8C01CE01E4DF800F911FDF91CF91C9
:103730001F910F9108958F929F92AF92BF92EF9237
:10374000FF920F931F93CF93DF93CDB7DEB7A1976F
:103750000FB6F894DEBF0FBECDBF7C01FA01CB01DE
:1037600019A2223008F42AE08E010F5D1F4F822E2D
:10377000912CA12CB12CBF01A501940170D2F901AB
:10378000CA01015011096A3010F4605D01C0695C22
:10379000D8016C93232B242B252B69F7B801C70183
:1037A00083DFA1960FB6F894DEBF0FBECDBFDF91C9
:1037B000CF911F910F91FF90EF90BF90AF909F908E
:1037C0008F9008952115310541F4DC01ED91FC91B4
:1037D0000190F081E02D642F1994ADCF0F931F93CA
:1037E000CF93DF93EC01EEDF8C01CE0181DF800F00
:1037F000911FDF91CF911F910F91089590E0FC01EF
:103800003197E231F10508F04DC08827EE58FF4F9F
:103810008F4F47C2809180008F7703C080918000D6
:103820008F7D80938000089580918000877FF9CFFD
:1038300084B58F7702C084B58F7D84BD0895809153
:10384000B0008F7703C08091B0008F7D8093B0006F
:103850000895809190008F7707C0809190008F7DB0
:1038600003C080919000877F80939000089580919D
:10387000A0008F7707C08091A0008F7D03C080914A
:10388000A000877F8093A0000895809120018F770A
:1038900007C0809120018F7D03C080912001877F28
:1038A000809320010895CF93DF9390E0FC01E25ACA
:1038B000FE4F2491FC01EC55FE4F8491882361F169
:1038C00090E0880F991FFC01EC5FFD4FC591D491EA
:1038D000FC01E651FE4FA591B491611109C09FB75B
:1038E000F8948881209582238883EC912E230BC045
:1038F000623061F49FB7F8948881322F309583232A
:103900008883EC912E2B2C939FBF06C08FB7F89421
:10391000E8812E2B28838FBFDF91CF9108951F93CD
:10392000CF93DF93282F30E0F901E85EFE4F8491BA
:10393000F901E25AFE4FD491F901EC55FE4FC491C2
:10394000CC23B9F0162F811159DFEC2FF0E0EE0FE8
:10395000FF1FE651FE4FA591B4919FB7F894111146
:1039600004C08C91D095D82302C0EC91DE2BDC935F
:103970009FBFDF91CF911F910895FC0180819181BC
:1039800049C2CF93DF93EC0188819981009709F0B8
:1039900041D2198218821D821C821B821A82DF91F9
:1039A000CF9108950F931F93CF93DF93EC018B0179
:1039B0006F5F7F4F88819981B6D2009731F09983EC
:1039C00088831B830A8381E001C080E0DF91CF916F
:1039D0001F910F910895CF93DF93EC018881998116
:1039E000892B29F08A819B818617970758F4CE018D
:1039F000D9DF882341F08C819D81892B19F4E881DE
:103A0000F981108281E0DF91CF910895EF92FF92CA
:103A10000F931F93CF93DF93EC017B018A01BA01CF
:103A2000DADF811103C0CE01ACDF06C01D830C8339
:103A3000B7018881998178D3CE01DF91CF911F9111
:103A40000F91FF90EF900895FC0111821082138274
:103A50001282158214826115710549F0FB010190F3
:103A60000020E9F73197AF01461B570BCFCF0895E0
:103A7000CF93DF93EC01FB018617970751F060812C
:103A800071816115710521F044815581BFDF01C04D
:103A900078DFCE01DF91CF910895CF93DF93EC01D2
:103AA0006115710551F0FB0101900020E9F7319794
:103AB000AF01461B570BAADF01C063DFCE01DF91C8
:103AC000CF9108950F931F93CF93DF93CDB7DEB7B8
:103AD000A1970FB6F894DEBF0FBECDBF8C01CB010E
:103AE000BA01F801118210821382128215821482A7
:103AF00030E0AE014F5F5F4F47D3BE016F5F7F4F36
:103B0000C801CBDFA1960FB6F894DEBF0FBECDBFC4
:103B1000DF91CF911F910F910895EF92FF920F9334
:103B20001F93CF93DF936115710511F480E01AC0E4
:103B300041155105B1F07B01EC018C819D818A0119
:103B4000080F191FB801CE0146DF882379F32881B9
:103B500039818C819D81B701820F931FE5D21D832E
:103B60000C8381E0DF91CF911F910F91FF90EF9037
:103B70000895CF93DF931F921F92CDB7DEB769836D
:103B80001A8241E050E0BE016F5F7F4FC6DF0F90A9
:103B90000F90DF91CF910895CF93DF93EC01FB015C
:103BA0004481558160817181B8DF811102C0CE01ED
:103BB000E8DECE01DF91CF910895CF93DF93EC0142
:103BC0006115710559F0FB0101900020E9F731976B
:103BD000AF01461B570BA1DF811102C0CE01D1DE20
:103BE000CE01DF91CF910895CF93DF93FC01248123
:103BF00035814217530760F4C081D18170E0CE0156
:103C0000840F951F86D2009719F08C1B9D0B02C064
:103C10008FEF9FEFDF91CF91089540E050E0E4CF28
:103C2000CF93DF93FC01248135814217530778F449
:103C3000FB01DC01CD91DC9160817181CE01840FAB
:103C4000951F88D2009719F08C1B9D0B02C08FEF37
:103C50009FEFDF91CF91089540E050E0E1CFA1E2E6
:103C60001A2EAA1BBB1BFD010DC0AA1FBB1FEE1FF6
:103C7000FF1FA217B307E407F50720F0A21BB30B41
:103C8000E40BF50B661F771F881F991F1A9469F7BD
:103C900060957095809590959B01AC01BD01CF0119
:103CA0000895EE0FFF1F881F8BBF0790F691E02D40
:103CB000199409D0A59F900DB49F900DA49F800DDD
:103CC000911D11240895A29FB001B39FC001A39F2D
:103CD000700D811D1124911DB29F700D811D112445
:103CE000911D08950F931F93CF93DF938230910519
:103CF00010F482E090E0E0910C07F0910D0720E0D5
:103D000030E0A0E0B0E0309719F1408151810281AC
:103D1000138148175907C8F08417950769F410975D
:103D200031F012960C93129713961C9327C00093B0
:103D30000C0710930D0722C02115310519F0421709
:103D4000530718F49A01BD01EF01DF01F801DBCF41
:103D500021153105F9F0281B390B2430310580F489
:103D60008A819B816115710521F0FB019383828318
:103D700004C090930D0780930C07FE01329644C057
:103D8000FE01E20FF31F8193919322503109398391
:103D900028833AC020910A0730910B07232B41F466
:103DA000209102023091030230930B0720930A07FF
:103DB00020910002309101022115310541F42DB707
:103DC0003EB74091040250910502241B350BE0914F
:103DD0000A07F0910B07E217F307A0F42E1B3F0B25
:103DE0002817390778F0AC014E5F5F4F241735076D
:103DF00048F04E0F5F1F50930B0740930A078193C3
:103E0000919302C0E0E0F0E0CF01DF91CF911F91EC
:103E10000F910895CF93DF93009709F481C0FC01BF
:103E2000329713821282A0910C07B0910D07109760
:103E300081F420813181820F931F20910A073091F4
:103E40000B072817390751F5F0930B07E0930A0782
:103E500067C0ED0120E030E0CE17DF0740F44A8173
:103E60005B819E0141155105F1F0EA01F5CFD38345
:103E7000C28340815181840F951FC817D90759F417
:103E800088819981840F951F0296918380838A810E
:103E90009B81938382832115310529F4F0930D07CB
:103EA000E0930C073DC0E901FB83EA8349915991F6
:103EB000C40FD51FEC17FD0761F480819181840F39
:103EC000951F0296E90199838883828193819B8360
:103ED0008A83E0E0F0E012968D919C911397009711
:103EE00019F0FD01DC01F7CF8D919C9111979D0197
:103EF0002E5F3F4F820F931F20910A0730910B07CF
:103F00002817390769F4309729F410920D07109299
:103F10000C0702C013821282B0930B07A0930A070A
:103F2000DF91CF9108956F927F928F929F92AF927F
:103F3000BF92CF92DF92EF92FF920F931F93CF9396
:103F4000DF93009781F4CB01DF91CF911F910F9107
:103F5000FF90EF90DF90CF90BF90AF909F908F90A9
:103F60007F906F90BFCEFC01E60FF71F9C0122509F
:103F70003109E217F30708F4A5C0EC01D9010D914E
:103F80001C91119706171707A8F00530110508F4C2
:103F900097C0C80104978617970708F491C002508C
:103FA0001109061B170B019311936D937C93CF019D
:103FB00031DF86C05B01A01AB10A4C01800E911E50
:103FC000A0910C07B0910D07612C712CE12CF12C04
:103FD000109709F446C08D919C911197A815B905C9
:103FE000B1F56C0142E0C40ED11CCA14DB0478F1B7
:103FF0004C018A189B08640142E0C40ED11C129641
:10400000BC9012971396AC91B5E0CB16D10440F05A
:10401000B282A38391828082D9016D937C9309C07F
:104020000E5F1F4F800F911FF90191838083EB2D4D
:10403000FA2FE114F10431F0D7011396FC93EE93BB
:1040400012973EC0F0930D07E0930C0739C0681635
:10405000790608F43C017D0112960D90BC91A02DCB
:10406000B7CF80910A0790910B0788169906E1F463
:1040700066167706C8F480910002909101020097BD
:1040800041F48DB79EB74091040250910502841B04
:10409000950BE817F907B0F4F0930B07E0930A07C4
:1040A000F901718360830CC0CB011CDE7C01009799
:1040B00049F0A801BE0124D0CE01ACDEC70104C086
:1040C000CE0102C080E090E0DF91CF911F910F916F
:1040D000FF90EF90DF90CF90BF90AF909F908F9028
:1040E0007F906F900895FB01DC0104C08D910190D9
:1040F000801921F441505040C8F7881B990B08954E
:10410000FB01DC0102C001900D9241505040D8F7F4
:104110000895FC018191861721F08823D9F799270A
:1041200008953197CF010895FB01DC0101900D92B4
:104130000020E1F70895FB01DC014150504048F0B8
:1041400001900D920020C9F701C01D9241505040CE
:10415000E0F70895FB0151915523A9F0BF01DC015F
:104160004D9145174111E1F759F4CD01019000201F
:1041700049F04D9140154111C9F3FB014111EFCFB9
:1041800081E090E0019708952532310518F422303E
:1041900008F004C0FA011082CA010895BB27FA0191
:1041A000A62F6217710581059105330B30FB66F070
:1041B000AA27660F771F881F991FAA1FA21710F042
:1041C000A21B63953850A9F7A05DAA3308F0A95D3A
:1041D000A19336F7B111B1931082CA0100C0DC017E
:1041E000FC01672F71917723E1F7329704C07C912E
:1041F0006D9370836291AE17BF07C8F30895F8946A
:02420000FFCFEE
:1042020000000E072000FFFFFFFF00C20100004B6D
:1042120000008025000000E1000000960000C012AE
:104222000000600900006E65782E74667400737475
:10423200617274205F636865636B46696C650069CF
:104242006E6974207364206661696C6564006669D6
:104252006C65206973206E6F7420657869740074D0
:1042620066742066696C652073697A652069733AA1
:1042720000636865636B2066696C65206F6B006321
:104282006F6E6E65637400636F6D6F6B006765744C
:104292002062617564726174650077686D692D775B
:1042A200726920002C002C30007468652066696CED
:1042B20065206973206572726F720067657420628F
:1042C20061756472617465206572726F72006D6FE0
:1042D20064696679206261756472617465206572D1
:1042E200726F7200646F776E6C6F61642066696CC6
:1042F20065206572726F7200646F776E6C6F6164B5
:10430200206F6B0D0A0000000000B205C805AE0563
:10431200E4059D0603060C062F0000000000C213F0
:104322002A1BAE05B1050000000035192A1BCA1868
:104332007B199C18B618A8186E616E00696E66002B
:044342006F7666002C
:00000001FF
